{
  "contractName": "Curator",
  "abi": [
    {
      "constant": true,
      "inputs": [],
      "name": "name",
      "outputs": [
        {
          "name": "",
          "type": "string"
        }
      ],
      "payable": false,
      "stateMutability": "view",
      "type": "function"
    },
    {
      "constant": false,
      "inputs": [
        {
          "name": "operator",
          "type": "address"
        },
        {
          "name": "assetId",
          "type": "uint256"
        }
      ],
      "name": "approve",
      "outputs": [],
      "payable": false,
      "stateMutability": "nonpayable",
      "type": "function"
    },
    {
      "constant": true,
      "inputs": [],
      "name": "totalSupply",
      "outputs": [
        {
          "name": "",
          "type": "uint256"
        }
      ],
      "payable": false,
      "stateMutability": "view",
      "type": "function"
    },
    {
      "constant": true,
      "inputs": [
        {
          "name": "assetId",
          "type": "uint256"
        }
      ],
      "name": "approvedFor",
      "outputs": [
        {
          "name": "",
          "type": "address"
        }
      ],
      "payable": false,
      "stateMutability": "view",
      "type": "function"
    },
    {
      "constant": true,
      "inputs": [
        {
          "name": "holder",
          "type": "address"
        }
      ],
      "name": "assetsOf",
      "outputs": [
        {
          "name": "",
          "type": "uint256[]"
        }
      ],
      "payable": false,
      "stateMutability": "view",
      "type": "function"
    },
    {
      "constant": true,
      "inputs": [],
      "name": "decimals",
      "outputs": [
        {
          "name": "",
          "type": "uint256"
        }
      ],
      "payable": false,
      "stateMutability": "view",
      "type": "function"
    },
    {
      "constant": true,
      "inputs": [
        {
          "name": "assetId",
          "type": "uint256"
        }
      ],
      "name": "safeHolderOf",
      "outputs": [
        {
          "name": "",
          "type": "address"
        }
      ],
      "payable": false,
      "stateMutability": "view",
      "type": "function"
    },
    {
      "constant": true,
      "inputs": [
        {
          "name": "operator",
          "type": "address"
        },
        {
          "name": "assetId",
          "type": "uint256"
        }
      ],
      "name": "isApprovedFor",
      "outputs": [
        {
          "name": "",
          "type": "bool"
        }
      ],
      "payable": false,
      "stateMutability": "view",
      "type": "function"
    },
    {
      "constant": true,
      "inputs": [
        {
          "name": "assetId",
          "type": "uint256"
        }
      ],
      "name": "exists",
      "outputs": [
        {
          "name": "",
          "type": "bool"
        }
      ],
      "payable": false,
      "stateMutability": "view",
      "type": "function"
    },
    {
      "constant": true,
      "inputs": [
        {
          "name": "assetId",
          "type": "uint256"
        }
      ],
      "name": "ownerOf",
      "outputs": [
        {
          "name": "",
          "type": "address"
        }
      ],
      "payable": false,
      "stateMutability": "view",
      "type": "function"
    },
    {
      "constant": true,
      "inputs": [
        {
          "name": "holder",
          "type": "address"
        }
      ],
      "name": "balanceOf",
      "outputs": [
        {
          "name": "",
          "type": "uint256"
        }
      ],
      "payable": false,
      "stateMutability": "view",
      "type": "function"
    },
    {
      "constant": true,
      "inputs": [],
      "name": "description",
      "outputs": [
        {
          "name": "",
          "type": "string"
        }
      ],
      "payable": false,
      "stateMutability": "view",
      "type": "function"
    },
    {
      "constant": true,
      "inputs": [],
      "name": "symbol",
      "outputs": [
        {
          "name": "",
          "type": "string"
        }
      ],
      "payable": false,
      "stateMutability": "view",
      "type": "function"
    },
    {
      "constant": true,
      "inputs": [
        {
          "name": "operator",
          "type": "address"
        },
        {
          "name": "assetHolder",
          "type": "address"
        }
      ],
      "name": "isOperatorAuthorizedBy",
      "outputs": [
        {
          "name": "",
          "type": "bool"
        }
      ],
      "payable": false,
      "stateMutability": "view",
      "type": "function"
    },
    {
      "constant": true,
      "inputs": [],
      "name": "isERC821",
      "outputs": [
        {
          "name": "",
          "type": "bool"
        }
      ],
      "payable": false,
      "stateMutability": "view",
      "type": "function"
    },
    {
      "constant": false,
      "inputs": [
        {
          "name": "to",
          "type": "address"
        },
        {
          "name": "assetId",
          "type": "uint256"
        }
      ],
      "name": "transfer",
      "outputs": [],
      "payable": false,
      "stateMutability": "nonpayable",
      "type": "function"
    },
    {
      "constant": true,
      "inputs": [
        {
          "name": "assetId",
          "type": "uint256"
        }
      ],
      "name": "assetData",
      "outputs": [
        {
          "name": "",
          "type": "string"
        }
      ],
      "payable": false,
      "stateMutability": "view",
      "type": "function"
    },
    {
      "constant": false,
      "inputs": [
        {
          "name": "operator",
          "type": "address"
        },
        {
          "name": "authorized",
          "type": "bool"
        }
      ],
      "name": "authorizeOperator",
      "outputs": [],
      "payable": false,
      "stateMutability": "nonpayable",
      "type": "function"
    },
    {
      "constant": true,
      "inputs": [
        {
          "name": "assetId",
          "type": "uint256"
        }
      ],
      "name": "safeAssetData",
      "outputs": [
        {
          "name": "",
          "type": "string"
        }
      ],
      "payable": false,
      "stateMutability": "view",
      "type": "function"
    },
    {
      "constant": true,
      "inputs": [
        {
          "name": "assetId",
          "type": "uint256"
        }
      ],
      "name": "safeOwnerOf",
      "outputs": [
        {
          "name": "",
          "type": "address"
        }
      ],
      "payable": false,
      "stateMutability": "view",
      "type": "function"
    },
    {
      "constant": false,
      "inputs": [
        {
          "name": "to",
          "type": "address"
        },
        {
          "name": "assetId",
          "type": "uint256"
        },
        {
          "name": "userData",
          "type": "bytes"
        }
      ],
      "name": "transfer",
      "outputs": [],
      "payable": false,
      "stateMutability": "nonpayable",
      "type": "function"
    },
    {
      "constant": true,
      "inputs": [
        {
          "name": "holder",
          "type": "address"
        }
      ],
      "name": "assetCount",
      "outputs": [
        {
          "name": "",
          "type": "uint256"
        }
      ],
      "payable": false,
      "stateMutability": "view",
      "type": "function"
    },
    {
      "constant": true,
      "inputs": [
        {
          "name": "holder",
          "type": "address"
        },
        {
          "name": "index",
          "type": "uint256"
        }
      ],
      "name": "assetByIndex",
      "outputs": [
        {
          "name": "",
          "type": "uint256"
        }
      ],
      "payable": false,
      "stateMutability": "view",
      "type": "function"
    },
    {
      "constant": true,
      "inputs": [
        {
          "name": "assetId",
          "type": "uint256"
        }
      ],
      "name": "holderOf",
      "outputs": [
        {
          "name": "",
          "type": "address"
        }
      ],
      "payable": false,
      "stateMutability": "view",
      "type": "function"
    },
    {
      "constant": false,
      "inputs": [
        {
          "name": "to",
          "type": "address"
        },
        {
          "name": "assetId",
          "type": "uint256"
        },
        {
          "name": "userData",
          "type": "bytes"
        },
        {
          "name": "operatorData",
          "type": "bytes"
        }
      ],
      "name": "transfer",
      "outputs": [],
      "payable": false,
      "stateMutability": "nonpayable",
      "type": "function"
    },
    {
      "inputs": [],
      "payable": false,
      "stateMutability": "nonpayable",
      "type": "constructor"
    },
    {
      "anonymous": false,
      "inputs": [
        {
          "indexed": true,
          "name": "from",
          "type": "address"
        },
        {
          "indexed": true,
          "name": "to",
          "type": "address"
        },
        {
          "indexed": true,
          "name": "assetId",
          "type": "uint256"
        },
        {
          "indexed": false,
          "name": "operator",
          "type": "address"
        },
        {
          "indexed": false,
          "name": "userData",
          "type": "bytes"
        },
        {
          "indexed": false,
          "name": "operatorData",
          "type": "bytes"
        }
      ],
      "name": "Transfer",
      "type": "event"
    },
    {
      "anonymous": false,
      "inputs": [
        {
          "indexed": true,
          "name": "assetId",
          "type": "uint256"
        },
        {
          "indexed": true,
          "name": "holder",
          "type": "address"
        },
        {
          "indexed": true,
          "name": "operator",
          "type": "address"
        },
        {
          "indexed": false,
          "name": "data",
          "type": "string"
        }
      ],
      "name": "Update",
      "type": "event"
    },
    {
      "anonymous": false,
      "inputs": [
        {
          "indexed": true,
          "name": "operator",
          "type": "address"
        },
        {
          "indexed": true,
          "name": "holder",
          "type": "address"
        },
        {
          "indexed": false,
          "name": "authorized",
          "type": "bool"
        }
      ],
      "name": "AuthorizeOperator",
      "type": "event"
    },
    {
      "anonymous": false,
      "inputs": [
        {
          "indexed": true,
          "name": "owner",
          "type": "address"
        },
        {
          "indexed": true,
          "name": "operator",
          "type": "address"
        },
        {
          "indexed": true,
          "name": "assetId",
          "type": "uint256"
        }
      ],
      "name": "Approve",
      "type": "event"
    },
    {
      "constant": true,
      "inputs": [
        {
          "name": "addr",
          "type": "address"
        }
      ],
      "name": "isContractProxy",
      "outputs": [
        {
          "name": "",
          "type": "bool"
        }
      ],
      "payable": false,
      "stateMutability": "view",
      "type": "function"
    },
    {
      "constant": false,
      "inputs": [
        {
          "name": "assetId",
          "type": "uint256"
        },
        {
          "name": "beneficiary",
          "type": "address"
        },
        {
          "name": "data",
          "type": "string"
        }
      ],
      "name": "generate",
      "outputs": [],
      "payable": false,
      "stateMutability": "nonpayable",
      "type": "function"
    },
    {
      "constant": false,
      "inputs": [
        {
          "name": "assetId",
          "type": "uint256"
        },
        {
          "name": "data",
          "type": "string"
        }
      ],
      "name": "update",
      "outputs": [],
      "payable": false,
      "stateMutability": "nonpayable",
      "type": "function"
    },
    {
      "constant": false,
      "inputs": [
        {
          "name": "assetId",
          "type": "uint256"
        }
      ],
      "name": "destroy",
      "outputs": [],
      "payable": false,
      "stateMutability": "nonpayable",
      "type": "function"
    },
    {
      "constant": false,
      "inputs": [
        {
          "name": "to",
          "type": "address"
        },
        {
          "name": "assetId",
          "type": "uint256"
        },
        {
          "name": "userData",
          "type": "bytes"
        },
        {
          "name": "operatorData",
          "type": "bytes"
        }
      ],
      "name": "transferTo",
      "outputs": [],
      "payable": false,
      "stateMutability": "nonpayable",
      "type": "function"
    }
  ],
  "bytecode": "0x6060604052739aa513f1294c8f1b254ba1188991b4cc2efe1d3b600c60006101000a81548173ffffffffffffffffffffffffffffffffffffffff021916908373ffffffffffffffffffffffffffffffffffffffff16021790555034156200006557600080fd5b6040805190810160405280600781526020017f43757261746f720000000000000000000000000000000000000000000000000081525060009080519060200190620000b29291906200017c565b506040805190810160405280600481526020017f435254520000000000000000000000000000000000000000000000000000000081525060019080519060200190620001009291906200017c565b50606060405190810160405280603081526020017f455243203832312d636f6d706c69616e7420736d61727420636f6e747261637481526020017f20666f72206469676974616c206172740000000000000000000000000000000081525060029080519060200190620001759291906200017c565b506200022b565b828054600181600116156101000203166002900490600052602060002090601f016020900481019282601f10620001bf57805160ff1916838001178555620001f0565b82800160010185558215620001f0579182015b82811115620001ef578251825591602001919060010190620001d2565b5b509050620001ff919062000203565b5090565b6200022891905b80821115620002245760008160009055506001016200020a565b5090565b90565b612c36806200023b6000396000f300606060405260043610610180576000357c0100000000000000000000000000000000000000000000000000000000900463ffffffff16806306fdde0314610185578063095ea7b31461021357806318160ddd146102555780632a6dd48f1461027e5780632c62fa10146102e1578063313ce5671461036f57806333683ec614610398578063390ff134146103fb5780634f558e7914610455578063526a6b48146104905780636352211e1461055857806370a08231146105bb5780637284e4161461060857806395d89b4114610696578063983df7cd146107245780639c5686db146107945780639d118770146107c1578063a9059cbb146107e4578063ac823a7e14610826578063b0994d4a146108c2578063b2d96b8114610906578063b6df4906146109a2578063be45fd6214610a05578063bffa925814610a8a578063c2e800ed14610ad7578063d2953f8414610b28578063d944534a14610b7e578063dbacc23714610c03578063e9b07bbf14610c66578063f745630f14610d2e575b600080fd5b341561019057600080fd5b610198610d94565b6040518080602001828103825283818151815260200191508051906020019080838360005b838110156101d85780820151818401526020810190506101bd565b50505050905090810190601f1680156102055780820380516001836020036101000a031916815260200191505b509250505060405180910390f35b341561021e57600080fd5b610253600480803573ffffffffffffffffffffffffffffffffffffffff16906020019091908035906020019091905050610e3c565b005b341561026057600080fd5b610268610f74565b6040518082815260200191505060405180910390f35b341561028957600080fd5b61029f6004808035906020019091905050610f7e565b604051808273ffffffffffffffffffffffffffffffffffffffff1673ffffffffffffffffffffffffffffffffffffffff16815260200191505060405180910390f35b34156102ec57600080fd5b610318600480803573ffffffffffffffffffffffffffffffffffffffff16906020019091905050610fbb565b6040518080602001828103825283818151815260200191508051906020019060200280838360005b8381101561035b578082015181840152602081019050610340565b505050509050019250505060405180910390f35b341561037a57600080fd5b610382611058565b6040518082815260200191505060405180910390f35b34156103a357600080fd5b6103b96004808035906020019091905050611060565b604051808273ffffffffffffffffffffffffffffffffffffffff1673ffffffffffffffffffffffffffffffffffffffff16815260200191505060405180910390f35b341561040657600080fd5b61043b600480803573ffffffffffffffffffffffffffffffffffffffff169060200190919080359060200190919050506110c8565b604051808215151515815260200191505060405180910390f35b341561046057600080fd5b610476600480803590602001909190505061119f565b604051808215151515815260200191505060405180910390f35b341561049b57600080fd5b610556600480803573ffffffffffffffffffffffffffffffffffffffff1690602001909190803590602001909190803590602001908201803590602001908080601f0160208091040260200160405190810160405280939291908181526020018383808284378201915050505050509190803590602001908201803590602001908080601f016020809104026020016040519081016040528093929190818152602001838380828437820191505050505050919050506111f5565b005b341561056357600080fd5b6105796004808035906020019091905050611207565b604051808273ffffffffffffffffffffffffffffffffffffffff1673ffffffffffffffffffffffffffffffffffffffff16815260200191505060405180910390f35b34156105c657600080fd5b6105f2600480803573ffffffffffffffffffffffffffffffffffffffff16906020019091905050611219565b6040518082815260200191505060405180910390f35b341561061357600080fd5b61061b61122b565b6040518080602001828103825283818151815260200191508051906020019080838360005b8381101561065b578082015181840152602081019050610640565b50505050905090810190601f1680156106885780820380516001836020036101000a031916815260200191505b509250505060405180910390f35b34156106a157600080fd5b6106a96112d3565b6040518080602001828103825283818151815260200191508051906020019080838360005b838110156106e95780820151818401526020810190506106ce565b50505050905090810190601f1680156107165780820380516001836020036101000a031916815260200191505b509250505060405180910390f35b341561072f57600080fd5b61077a600480803573ffffffffffffffffffffffffffffffffffffffff1690602001909190803573ffffffffffffffffffffffffffffffffffffffff1690602001909190505061137b565b604051808215151515815260200191505060405180910390f35b341561079f57600080fd5b6107a761140f565b604051808215151515815260200191505060405180910390f35b34156107cc57600080fd5b6107e26004808035906020019091905050611418565b005b34156107ef57600080fd5b610824600480803573ffffffffffffffffffffffffffffffffffffffff16906020019091908035906020019091905050611424565b005b341561083157600080fd5b6108476004808035906020019091905050611456565b6040518080602001828103825283818151815260200191508051906020019080838360005b8381101561088757808201518184015260208101905061086c565b50505050905090810190601f1680156108b45780820380516001836020036101000a031916815260200191505b509250505060405180910390f35b34156108cd57600080fd5b610904600480803573ffffffffffffffffffffffffffffffffffffffff169060200190919080351515906020019091905050611511565b005b341561091157600080fd5b61092760048080359060200190919050506115c9565b6040518080602001828103825283818151815260200191508051906020019080838360005b8381101561096757808201518184015260208101905061094c565b50505050905090810190601f1680156109945780820380516001836020036101000a031916815260200191505b509250505060405180910390f35b34156109ad57600080fd5b6109c360048080359060200190919050506116dd565b604051808273ffffffffffffffffffffffffffffffffffffffff1673ffffffffffffffffffffffffffffffffffffffff16815260200191505060405180910390f35b3415610a1057600080fd5b610a88600480803573ffffffffffffffffffffffffffffffffffffffff1690602001909190803590602001909190803590602001908201803590602001908080601f016020809104026020016040519081016040528093929190818152602001838380828437820191505050505050919050506116ef565b005b3415610a9557600080fd5b610ac1600480803573ffffffffffffffffffffffffffffffffffffffff16906020019091905050611712565b6040518082815260200191505060405180910390f35b3415610ae257600080fd5b610b0e600480803573ffffffffffffffffffffffffffffffffffffffff1690602001909190505061175e565b604051808215151515815260200191505060405180910390f35b3415610b3357600080fd5b610b68600480803573ffffffffffffffffffffffffffffffffffffffff16906020019091908035906020019091905050611770565b6040518082815260200191505060405180910390f35b3415610b8957600080fd5b610c01600480803590602001909190803573ffffffffffffffffffffffffffffffffffffffff1690602001909190803590602001908201803590602001908080601f01602080910402602001604051908101604052809392919081815260200183838082843782019150505050505091905050611840565b005b3415610c0e57600080fd5b610c246004808035906020019091905050611850565b604051808273ffffffffffffffffffffffffffffffffffffffff1673ffffffffffffffffffffffffffffffffffffffff16815260200191505060405180910390f35b3415610c7157600080fd5b610d2c600480803573ffffffffffffffffffffffffffffffffffffffff1690602001909190803590602001909190803590602001908201803590602001908080601f0160208091040260200160405190810160405280939291908181526020018383808284378201915050505050509190803590602001908201803590602001908080601f0160208091040260200160405190810160405280939291908181526020018383808284378201915050505050509190505061188d565b005b3415610d3957600080fd5b610d92600480803590602001909190803590602001908201803590602001908080601f016020809104026020016040519081016040528093929190818152602001838380828437820191505050505050919050506118a0565b005b610d9c612ac4565b60008054600181600116156101000203166002900480601f016020809104026020016040519081016040528092919081815260200182805460018160011615610100020316600290048015610e325780601f10610e0757610100808354040283529160200191610e32565b820191906000526020600020905b815481529060010190602001808311610e1557829003601f168201915b5050505050905090565b6000610e4782611850565b90508073ffffffffffffffffffffffffffffffffffffffff168373ffffffffffffffffffffffffffffffffffffffff1614151515610e8457600080fd5b8273ffffffffffffffffffffffffffffffffffffffff16610ea483610f7e565b73ffffffffffffffffffffffffffffffffffffffff16141515610f6f5782600b600084815260200190815260200160002060006101000a81548173ffffffffffffffffffffffffffffffffffffffff021916908373ffffffffffffffffffffffffffffffffffffffff160217905550818373ffffffffffffffffffffffffffffffffffffffff168273ffffffffffffffffffffffffffffffffffffffff167f6e11fb1b7f119e3f2fa29896ef5fdf8b8a2d0d4df6fe90ba8668e7d8b2ffa25e60405160405180910390a45b505050565b6000600354905090565b6000600b600083815260200190815260200160002060009054906101000a900473ffffffffffffffffffffffffffffffffffffffff169050919050565b610fc3612ad8565b600460008373ffffffffffffffffffffffffffffffffffffffff1673ffffffffffffffffffffffffffffffffffffffff16815260200190815260200160002080548060200260200160405190810160405280929190818152602001828054801561104c57602002820191906000526020600020905b815481526020019060010190808311611038575b50505050509050919050565b600080905090565b6000806005600084815260200190815260200160002060009054906101000a900473ffffffffffffffffffffffffffffffffffffffff16905060008173ffffffffffffffffffffffffffffffffffffffff16141515156110bf57600080fd5b80915050919050565b6000808373ffffffffffffffffffffffffffffffffffffffff16141515156110ef57600080fd5b6110f882611850565b73ffffffffffffffffffffffffffffffffffffffff168373ffffffffffffffffffffffffffffffffffffffff1614156111345760019050611199565b8273ffffffffffffffffffffffffffffffffffffffff16600b600084815260200190815260200160002060009054906101000a900473ffffffffffffffffffffffffffffffffffffffff1673ffffffffffffffffffffffffffffffffffffffff161490505b92915050565b6000806005600084815260200190815260200160002060009054906101000a900473ffffffffffffffffffffffffffffffffffffffff1673ffffffffffffffffffffffffffffffffffffffff1614159050919050565b6112018484848461188d565b50505050565b600061121282611850565b9050919050565b600061122482611712565b9050919050565b611233612ac4565b60028054600181600116156101000203166002900480601f0160208091040260200160405190810160405280929190818152602001828054600181600116156101000203166002900480156112c95780601f1061129e576101008083540402835291602001916112c9565b820191906000526020600020905b8154815290600101906020018083116112ac57829003601f168201915b5050505050905090565b6112db612ac4565b60018054600181600116156101000203166002900480601f0160208091040260200160405190810160405280929190818152602001828054600181600116156101000203166002900480156113715780601f1061134657610100808354040283529160200191611371565b820191906000526020600020905b81548152906001019060200180831161135457829003601f168201915b5050505050905090565b6000600860008373ffffffffffffffffffffffffffffffffffffffff1673ffffffffffffffffffffffffffffffffffffffff16815260200190815260200160002060008473ffffffffffffffffffffffffffffffffffffffff1673ffffffffffffffffffffffffffffffffffffffff16815260200190815260200160002060009054906101000a900460ff16905092915050565b60006001905090565b611421816118ae565b50565b61145282826020604051908101604052806000815250600060206040519081016040528060008152506119c8565b5050565b61145e612ac4565b600760008381526020019081526020016000208054600181600116156101000203166002900480601f0160208091040260200160405190810160405280929190818152602001828054600181600116156101000203166002900480156115055780601f106114da57610100808354040283529160200191611505565b820191906000526020600020905b8154815290600101906020018083116114e857829003601f168201915b50505050509050919050565b801561153c57611521823361137b565b15151561152d57600080fd5b6115378233611b3a565b61155c565b611546823361137b565b151561155157600080fd5b61155b8233611bd3565b5b3373ffffffffffffffffffffffffffffffffffffffff168273ffffffffffffffffffffffffffffffffffffffff167ffe1dcbb12493a4af760875b0c328b264e6397b8bd47cdc249df0444b4daf1cbc83604051808215151515815260200191505060405180910390a35050565b6115d1612ac4565b60006005600084815260200190815260200160002060009054906101000a900473ffffffffffffffffffffffffffffffffffffffff1673ffffffffffffffffffffffffffffffffffffffff161415151561162a57600080fd5b600760008381526020019081526020016000208054600181600116156101000203166002900480601f0160208091040260200160405190810160405280929190818152602001828054600181600116156101000203166002900480156116d15780601f106116a6576101008083540402835291602001916116d1565b820191906000526020600020905b8154815290600101906020018083116116b457829003601f168201915b50505050509050919050565b60006116e882611060565b9050919050565b61170d838383600060206040519081016040528060008152506119c8565b505050565b6000600460008373ffffffffffffffffffffffffffffffffffffffff1673ffffffffffffffffffffffffffffffffffffffff168152602001908152602001600020805490509050919050565b600061176982611c6c565b9050919050565b6000600460008473ffffffffffffffffffffffffffffffffffffffff1673ffffffffffffffffffffffffffffffffffffffff16815260200190815260200160002080549050821015156117c257600080fd5b6f80000000000000000000000000000000821015156117e057600080fd5b600460008473ffffffffffffffffffffffffffffffffffffffff1673ffffffffffffffffffffffffffffffffffffffff1681526020019081526020016000208281548110151561182c57fe5b906000526020600020900154905092915050565b61184b838383611c7f565b505050565b60006005600083815260200190815260200160002060009054906101000a900473ffffffffffffffffffffffffffffffffffffffff169050919050565b61189a84848433856119c8565b50505050565b6118aa8282611de5565b5050565b60006005600083815260200190815260200160002060009054906101000a900473ffffffffffffffffffffffffffffffffffffffff16905060008173ffffffffffffffffffffffffffffffffffffffff161415151561190c57600080fd5b6119168183611f23565b61191f82612200565b8160008273ffffffffffffffffffffffffffffffffffffffff167f8988d59efc2c4547ef86c88f6543963bab0cea94f8e486e619c7c3a790db93be33604051808273ffffffffffffffffffffffffffffffffffffffff1673ffffffffffffffffffffffffffffffffffffffff1681526020018060200180602001838103835260008152602001602001838103825260008152602001602001935050505060405180910390a45050565b8460008173ffffffffffffffffffffffffffffffffffffffff16141515156119ef57600080fd5b84868073ffffffffffffffffffffffffffffffffffffffff166005600084815260200190815260200160002060009054906101000a900473ffffffffffffffffffffffffffffffffffffffff1673ffffffffffffffffffffffffffffffffffffffff1614151515611a5f57600080fd5b863373ffffffffffffffffffffffffffffffffffffffff166005600083815260200190815260200160002060009054906101000a900473ffffffffffffffffffffffffffffffffffffffff1673ffffffffffffffffffffffffffffffffffffffff161480611b065750611b05336005600084815260200190815260200160002060009054906101000a900473ffffffffffffffffffffffffffffffffffffffff1661137b565b5b80611b175750611b1633826110c8565b5b1515611b2257600080fd5b611b2f898989898961223b565b505050505050505050565b6001600860008373ffffffffffffffffffffffffffffffffffffffff1673ffffffffffffffffffffffffffffffffffffffff16815260200190815260200160002060008473ffffffffffffffffffffffffffffffffffffffff1673ffffffffffffffffffffffffffffffffffffffff16815260200190815260200160002060006101000a81548160ff0219169083151502179055505050565b6000600860008373ffffffffffffffffffffffffffffffffffffffff1673ffffffffffffffffffffffffffffffffffffffff16815260200190815260200160002060008473ffffffffffffffffffffffffffffffffffffffff1673ffffffffffffffffffffffffffffffffffffffff16815260200190815260200160002060006101000a81548160ff0219169083151502179055505050565b600080823b905060008111915050919050565b60006005600085815260200190815260200160002060009054906101000a900473ffffffffffffffffffffffffffffffffffffffff1673ffffffffffffffffffffffffffffffffffffffff16141515611cd757600080fd5b611ce28284836126c7565b828273ffffffffffffffffffffffffffffffffffffffff1660007f8988d59efc2c4547ef86c88f6543963bab0cea94f8e486e619c7c3a790db93be3385604051808373ffffffffffffffffffffffffffffffffffffffff1673ffffffffffffffffffffffffffffffffffffffff1681526020018060200180602001838103835284818151815260200191508051906020019080838360005b83811015611d95578082015181840152602081019050611d7a565b50505050905090810190601f168015611dc25780820380516001836020036101000a031916815260200191505b5083810382526000815260200160200194505050505060405180910390a4505050565b611dee8261119f565b1515611df957600080fd5b80600760008481526020019081526020016000209080519060200190611e20929190612aec565b503373ffffffffffffffffffffffffffffffffffffffff166005600084815260200190815260200160002060009054906101000a900473ffffffffffffffffffffffffffffffffffffffff1673ffffffffffffffffffffffffffffffffffffffff16837f47c705b9219229ad762fca605f08fb024a3415d0ae78af5d319820c72e510414846040518080602001828103825283818151815260200191508051906020019080838360005b83811015611ee5578082015181840152602081019050611eca565b50505050905090810190601f168015611f125780820380516001836020036101000a031916815260200191505b509250505060405180910390a45050565b600080600060066000858152602001908152602001600020549250611f5a6001611f4c87611712565b6126fe90919063ffffffff16565b9150600460008673ffffffffffffffffffffffffffffffffffffffff1673ffffffffffffffffffffffffffffffffffffffff16815260200190815260200160002082815481101515611fa857fe5b906000526020600020900154905060006005600086815260200190815260200160002060006101000a81548173ffffffffffffffffffffffffffffffffffffffff021916908373ffffffffffffffffffffffffffffffffffffffff16021790555080600460008773ffffffffffffffffffffffffffffffffffffffff1673ffffffffffffffffffffffffffffffffffffffff1681526020019081526020016000208481548110151561205657fe5b9060005260206000209001819055506000600460008773ffffffffffffffffffffffffffffffffffffffff1673ffffffffffffffffffffffffffffffffffffffff168152602001908152602001600020838154811015156120b357fe5b906000526020600020900181905550600460008673ffffffffffffffffffffffffffffffffffffffff1673ffffffffffffffffffffffffffffffffffffffff1681526020019081526020016000208054809190600190036121149190612b6c565b506000600460008773ffffffffffffffffffffffffffffffffffffffff1673ffffffffffffffffffffffffffffffffffffffff1681526020019081526020016000208054905014156121ac57600460008673ffffffffffffffffffffffffffffffffffffffff1673ffffffffffffffffffffffffffffffffffffffff16815260200190815260200160002060006121ab9190612b98565b5b600060066000868152602001908152602001600020819055508260066000838152602001908152602001600020819055506121f360016003546126fe90919063ffffffff16565b6003819055505050505050565b6020604051908101604052806000815250600760008381526020019081526020016000209080519060200190612237929190612aec565b5050565b6000806005600087815260200190815260200160002060009054906101000a900473ffffffffffffffffffffffffffffffffffffffff16915061227e8287611f23565b6122888287612717565b6122928787612847565b61229b87611c6c565b1561255257600960009054906101000a900460ff161515156122bc57600080fd5b6001600960006101000a81548160ff021916908315150217905550612316876040805190810160405280600c81526020017f494173736574486f6c6465720000000000000000000000000000000000000000815250612945565b905060008173ffffffffffffffffffffffffffffffffffffffff161415151561233e57600080fd5b8073ffffffffffffffffffffffffffffffffffffffff16633bde307287848a8989896040518763ffffffff167c0100000000000000000000000000000000000000000000000000000000028152600401808781526020018673ffffffffffffffffffffffffffffffffffffffff1673ffffffffffffffffffffffffffffffffffffffff1681526020018573ffffffffffffffffffffffffffffffffffffffff1673ffffffffffffffffffffffffffffffffffffffff168152602001806020018473ffffffffffffffffffffffffffffffffffffffff1673ffffffffffffffffffffffffffffffffffffffff16815260200180602001838103835286818151815260200191508051906020019080838360005b8381101561246b578082015181840152602081019050612450565b50505050905090810190601f1680156124985780820380516001836020036101000a031916815260200191505b50838103825284818151815260200191508051906020019080838360005b838110156124d15780820151818401526020810190506124b6565b50505050905090810190601f1680156124fe5780820380516001836020036101000a031916815260200191505b5098505050505050505050600060405180830381600087803b151561252257600080fd5b6102c65a03f1151561253357600080fd5b5050506000600960006101000a81548160ff0219169083151502179055505b858773ffffffffffffffffffffffffffffffffffffffff168373ffffffffffffffffffffffffffffffffffffffff167f8988d59efc2c4547ef86c88f6543963bab0cea94f8e486e619c7c3a790db93be878988604051808473ffffffffffffffffffffffffffffffffffffffff1673ffffffffffffffffffffffffffffffffffffffff1681526020018060200180602001838103835285818151815260200191508051906020019080838360005b8381101561261b578082015181840152602081019050612600565b50505050905090810190601f1680156126485780820380516001836020036101000a031916815260200191505b50838103825284818151815260200191508051906020019080838360005b83811015612681578082015181840152602081019050612666565b50505050905090810190601f1680156126ae5780820380516001836020036101000a031916815260200191505b509550505050505060405180910390a450505050505050565b6126d18383612847565b806007600084815260200190815260200160002090805190602001906126f8929190612aec565b50505050565b600082821115151561270c57fe5b818303905092915050565b8173ffffffffffffffffffffffffffffffffffffffff1661273782611850565b73ffffffffffffffffffffffffffffffffffffffff161480156127a457506000600b600083815260200190815260200160002060009054906101000a900473ffffffffffffffffffffffffffffffffffffffff1673ffffffffffffffffffffffffffffffffffffffff1614155b15612843576000600b600083815260200190815260200160002060006101000a81548173ffffffffffffffffffffffffffffffffffffffff021916908373ffffffffffffffffffffffffffffffffffffffff1602179055508060008373ffffffffffffffffffffffffffffffffffffffff167f6e11fb1b7f119e3f2fa29896ef5fdf8b8a2d0d4df6fe90ba8668e7d8b2ffa25e60405160405180910390a45b5050565b6000826005600084815260200190815260200160002060006101000a81548173ffffffffffffffffffffffffffffffffffffffff021916908373ffffffffffffffffffffffffffffffffffffffff1602179055506128a483611712565b9050600460008473ffffffffffffffffffffffffffffffffffffffff1673ffffffffffffffffffffffffffffffffffffffff16815260200190815260200160002080548060010182816128f79190612bb9565b91600052602060002090016000849091909150555080600660008481526020019081526020016000208190555061293a6001600354612aa690919063ffffffff16565b600381905550505050565b600080826040518082805190602001908083835b60208310151561297e5780518252602082019150602081019050602083039250612959565b6001836020036101000a03801982511681845116808217855250505050505090500191505060405180910390209050600c60009054906101000a900473ffffffffffffffffffffffffffffffffffffffff1673ffffffffffffffffffffffffffffffffffffffff1663aabbb8ca85836000604051602001526040518363ffffffff167c0100000000000000000000000000000000000000000000000000000000028152600401808373ffffffffffffffffffffffffffffffffffffffff1673ffffffffffffffffffffffffffffffffffffffff168152602001826000191660001916815260200192505050602060405180830381600087803b1515612a8257600080fd5b6102c65a03f11515612a9357600080fd5b5050506040518051905091505092915050565b6000808284019050838110151515612aba57fe5b8091505092915050565b602060405190810160405280600081525090565b602060405190810160405280600081525090565b828054600181600116156101000203166002900490600052602060002090601f016020900481019282601f10612b2d57805160ff1916838001178555612b5b565b82800160010185558215612b5b579182015b82811115612b5a578251825591602001919060010190612b3f565b5b509050612b689190612be5565b5090565b815481835581811511612b9357818360005260206000209182019101612b929190612be5565b5b505050565b5080546000825590600052602060002090810190612bb69190612be5565b50565b815481835581811511612be057818360005260206000209182019101612bdf9190612be5565b5b505050565b612c0791905b80821115612c03576000816000905550600101612beb565b5090565b905600a165627a7a723058207eff1e146deb67eca67e5c192bd6d2f4917a6d196e540bc6889e76fd71c613d10029",
  "source": "pragma solidity 0.4.19;\n\nimport './StandardAssetRegistry.sol';\n\ncontract Curator is StandardAssetRegistry {\n\n  function Curator() public {\n    _name = \"Curator\";\n    _symbol = \"CRTR\";\n    _description = \"ERC 821-compliant smart contract for digital art\";\n  }\n\n  function isContractProxy(address addr) public view returns (bool) {\n    return _isContract(addr);\n  }\n\n  function generate(uint256 assetId, address beneficiary, string data) public {\n    _generate(assetId, beneficiary, data);\n  }\n\n  function update(uint256 assetId, string data) public {\n    _update(assetId, data);\n  }\n\n  function destroy(uint256 assetId) public {\n    _destroy(assetId);\n  }\n\n  function transferTo( \n    address to, uint256 assetId, bytes userData, bytes operatorData\n  ) \n    public\n  {\n    return transfer(to, assetId, userData, operatorData);\n  }\n}\n",
  "sourcePath": "/Users/pfh/work/xlnt/curator/contracts/Curator.sol",
  "compiler": {
    "name": "solc",
    "version": "0.4.19+commit.c4cbbb05.Emscripten.clang"
  },
  "schemaVersion": "1.0.1",
  "updatedAt": "2018-02-10T03:58:25.326Z"
}